S0150000656D6265646465645F70726F6A2E73726563CB
S11300000C942A000C946C000C9477000C943C0023
S11300100C943C000C943C000C943C000C943C006C
S11300200C943C000C943C000C943C000C943C005C
S11300300C943C000C943C000C943C000C943C004C
S11300400C943C000C943C000C943C000C943C003C
S11300500C943C0011241FBECFE5D4E0DEBFCDBF1D
S113006020E0A0E6B0E001C01D92A236B207E1F79D
S11300700E9494000C9415010C9400001ABA86B1E5
S1130080836886B93D9A0895379A389A3D9A369A84
S11300903699FECF85B137980895379A3A9A3D9AA2
S11300A0369A3699FECF85B137980895889A8998FB
S11300B0929A919A83E08A95F1F7000085B78A6055
S11300C085BF8BB780648BBF789487EA91E60197EC
S11300D0F1F700C0000008951F920F920FB60F921F
S11300E01124A89A0F900FBE0F901F9018951F927D
S11300F00F920FB60F9211248F9383E085BB8F91DB
S11301000F900FBE0F901F901895CC9B0BC0A99A0F
S11301102FE986E891E0215080409040E1F700C04B
S113012000000895A99808951ABA8FE084BB899AAB
S11301308A988B9882B38C6082BB85B7846085BFB4
S11301408BB780688BBF78940E943E00CFEFD0E0DD
S1130150809161000E94440090E09C01220F331FB3
S1130160220F331F820F931FBE010E94ED00609384
S11301706100809160000E944D0090E09C01220F7C
S1130180331F220F331F820F931FBE010E94ED0005
S11301906093600080916100823060F40E94560098
S11301A02FE986E891E0215080409040E1F700C0BB
S11301B0000001C0A89880916000823060F40E9421
S11301C085002FE986E891E0215080409040E1F7D6
S11301D000C00000BDCFA998BBCF97FB072E16F433
S11301E0009407D077FD09D00E94010107FC05D0D7
S11301F03EF4909581959F4F0895709561957F4F3A
S11302000895AA1BBB1B51E107C0AA1FBB1FA61759
S1130210B70710F0A61BB70B881F991F5A95A9F7AB
S111022080959095BC01CD010895F894FFCF10
S9030000FC
